{
  "_format": "hh-sol-artifact-1",
  "contractName": "HolidayToken",
  "sourceName": "contracts/HolidayToken.sol",
  "abi": [
    {
      "anonymous": false,
      "inputs": [
        {
          "indexed": true,
          "internalType": "address",
          "name": "owner",
          "type": "address"
        },
        {
          "indexed": true,
          "internalType": "address",
          "name": "spender",
          "type": "address"
        },
        {
          "indexed": false,
          "internalType": "uint256",
          "name": "value",
          "type": "uint256"
        }
      ],
      "name": "Approval",
      "type": "event"
    },
    {
      "anonymous": false,
      "inputs": [
        {
          "indexed": false,
          "internalType": "uint8",
          "name": "version",
          "type": "uint8"
        }
      ],
      "name": "Initialized",
      "type": "event"
    },
    {
      "anonymous": false,
      "inputs": [
        {
          "indexed": false,
          "internalType": "address",
          "name": "account",
          "type": "address"
        }
      ],
      "name": "Paused",
      "type": "event"
    },
    {
      "anonymous": false,
      "inputs": [
        {
          "indexed": true,
          "internalType": "bytes32",
          "name": "role",
          "type": "bytes32"
        },
        {
          "indexed": true,
          "internalType": "bytes32",
          "name": "previousAdminRole",
          "type": "bytes32"
        },
        {
          "indexed": true,
          "internalType": "bytes32",
          "name": "newAdminRole",
          "type": "bytes32"
        }
      ],
      "name": "RoleAdminChanged",
      "type": "event"
    },
    {
      "anonymous": false,
      "inputs": [
        {
          "indexed": true,
          "internalType": "bytes32",
          "name": "role",
          "type": "bytes32"
        },
        {
          "indexed": true,
          "internalType": "address",
          "name": "account",
          "type": "address"
        },
        {
          "indexed": true,
          "internalType": "address",
          "name": "sender",
          "type": "address"
        }
      ],
      "name": "RoleGranted",
      "type": "event"
    },
    {
      "anonymous": false,
      "inputs": [
        {
          "indexed": true,
          "internalType": "bytes32",
          "name": "role",
          "type": "bytes32"
        },
        {
          "indexed": true,
          "internalType": "address",
          "name": "account",
          "type": "address"
        },
        {
          "indexed": true,
          "internalType": "address",
          "name": "sender",
          "type": "address"
        }
      ],
      "name": "RoleRevoked",
      "type": "event"
    },
    {
      "anonymous": false,
      "inputs": [
        {
          "indexed": true,
          "internalType": "address",
          "name": "from",
          "type": "address"
        },
        {
          "indexed": true,
          "internalType": "address",
          "name": "to",
          "type": "address"
        },
        {
          "indexed": false,
          "internalType": "uint256",
          "name": "value",
          "type": "uint256"
        }
      ],
      "name": "Transfer",
      "type": "event"
    },
    {
      "anonymous": false,
      "inputs": [
        {
          "indexed": false,
          "internalType": "address",
          "name": "account",
          "type": "address"
        }
      ],
      "name": "Unpaused",
      "type": "event"
    },
    {
      "inputs": [],
      "name": "DEFAULT_ADMIN_ROLE",
      "outputs": [
        {
          "internalType": "bytes32",
          "name": "",
          "type": "bytes32"
        }
      ],
      "stateMutability": "view",
      "type": "function"
    },
    {
      "inputs": [],
      "name": "MINTER_ROLE",
      "outputs": [
        {
          "internalType": "bytes32",
          "name": "",
          "type": "bytes32"
        }
      ],
      "stateMutability": "view",
      "type": "function"
    },
    {
      "inputs": [],
      "name": "PAUSER_ROLE",
      "outputs": [
        {
          "internalType": "bytes32",
          "name": "",
          "type": "bytes32"
        }
      ],
      "stateMutability": "view",
      "type": "function"
    },
    {
      "inputs": [
        {
          "internalType": "address",
          "name": "owner",
          "type": "address"
        },
        {
          "internalType": "address",
          "name": "spender",
          "type": "address"
        }
      ],
      "name": "allowance",
      "outputs": [
        {
          "internalType": "uint256",
          "name": "",
          "type": "uint256"
        }
      ],
      "stateMutability": "view",
      "type": "function"
    },
    {
      "inputs": [
        {
          "internalType": "address",
          "name": "spender",
          "type": "address"
        },
        {
          "internalType": "uint256",
          "name": "amount",
          "type": "uint256"
        }
      ],
      "name": "approve",
      "outputs": [
        {
          "internalType": "bool",
          "name": "",
          "type": "bool"
        }
      ],
      "stateMutability": "nonpayable",
      "type": "function"
    },
    {
      "inputs": [
        {
          "internalType": "address",
          "name": "account",
          "type": "address"
        }
      ],
      "name": "balanceOf",
      "outputs": [
        {
          "internalType": "uint256",
          "name": "",
          "type": "uint256"
        }
      ],
      "stateMutability": "view",
      "type": "function"
    },
    {
      "inputs": [
        {
          "internalType": "address",
          "name": "account",
          "type": "address"
        }
      ],
      "name": "blacklist",
      "outputs": [],
      "stateMutability": "nonpayable",
      "type": "function"
    },
    {
      "inputs": [
        {
          "internalType": "address",
          "name": "from",
          "type": "address"
        },
        {
          "internalType": "uint256",
          "name": "amount",
          "type": "uint256"
        }
      ],
      "name": "burn",
      "outputs": [],
      "stateMutability": "nonpayable",
      "type": "function"
    },
    {
      "inputs": [],
      "name": "decimals",
      "outputs": [
        {
          "internalType": "uint8",
          "name": "",
          "type": "uint8"
        }
      ],
      "stateMutability": "view",
      "type": "function"
    },
    {
      "inputs": [
        {
          "internalType": "address",
          "name": "spender",
          "type": "address"
        },
        {
          "internalType": "uint256",
          "name": "subtractedValue",
          "type": "uint256"
        }
      ],
      "name": "decreaseAllowance",
      "outputs": [
        {
          "internalType": "bool",
          "name": "",
          "type": "bool"
        }
      ],
      "stateMutability": "nonpayable",
      "type": "function"
    },
    {
      "inputs": [
        {
          "internalType": "bytes32",
          "name": "role",
          "type": "bytes32"
        }
      ],
      "name": "getRoleAdmin",
      "outputs": [
        {
          "internalType": "bytes32",
          "name": "",
          "type": "bytes32"
        }
      ],
      "stateMutability": "view",
      "type": "function"
    },
    {
      "inputs": [
        {
          "internalType": "bytes32",
          "name": "role",
          "type": "bytes32"
        },
        {
          "internalType": "address",
          "name": "account",
          "type": "address"
        }
      ],
      "name": "grantRole",
      "outputs": [],
      "stateMutability": "nonpayable",
      "type": "function"
    },
    {
      "inputs": [
        {
          "internalType": "bytes32",
          "name": "role",
          "type": "bytes32"
        },
        {
          "internalType": "address",
          "name": "account",
          "type": "address"
        }
      ],
      "name": "hasRole",
      "outputs": [
        {
          "internalType": "bool",
          "name": "",
          "type": "bool"
        }
      ],
      "stateMutability": "view",
      "type": "function"
    },
    {
      "inputs": [
        {
          "internalType": "address",
          "name": "spender",
          "type": "address"
        },
        {
          "internalType": "uint256",
          "name": "addedValue",
          "type": "uint256"
        }
      ],
      "name": "increaseAllowance",
      "outputs": [
        {
          "internalType": "bool",
          "name": "",
          "type": "bool"
        }
      ],
      "stateMutability": "nonpayable",
      "type": "function"
    },
    {
      "inputs": [],
      "name": "initialize",
      "outputs": [],
      "stateMutability": "nonpayable",
      "type": "function"
    },
    {
      "inputs": [
        {
          "internalType": "address",
          "name": "account",
          "type": "address"
        }
      ],
      "name": "isBlacklisted",
      "outputs": [
        {
          "internalType": "bool",
          "name": "",
          "type": "bool"
        }
      ],
      "stateMutability": "view",
      "type": "function"
    },
    {
      "inputs": [
        {
          "internalType": "address",
          "name": "to",
          "type": "address"
        },
        {
          "internalType": "uint256",
          "name": "amount",
          "type": "uint256"
        }
      ],
      "name": "mint",
      "outputs": [],
      "stateMutability": "nonpayable",
      "type": "function"
    },
    {
      "inputs": [],
      "name": "name",
      "outputs": [
        {
          "internalType": "string",
          "name": "",
          "type": "string"
        }
      ],
      "stateMutability": "view",
      "type": "function"
    },
    {
      "inputs": [],
      "name": "pause",
      "outputs": [],
      "stateMutability": "nonpayable",
      "type": "function"
    },
    {
      "inputs": [],
      "name": "paused",
      "outputs": [
        {
          "internalType": "bool",
          "name": "",
          "type": "bool"
        }
      ],
      "stateMutability": "view",
      "type": "function"
    },
    {
      "inputs": [
        {
          "internalType": "bytes32",
          "name": "role",
          "type": "bytes32"
        },
        {
          "internalType": "address",
          "name": "account",
          "type": "address"
        }
      ],
      "name": "renounceRole",
      "outputs": [],
      "stateMutability": "nonpayable",
      "type": "function"
    },
    {
      "inputs": [
        {
          "internalType": "bytes32",
          "name": "role",
          "type": "bytes32"
        },
        {
          "internalType": "address",
          "name": "account",
          "type": "address"
        }
      ],
      "name": "revokeRole",
      "outputs": [],
      "stateMutability": "nonpayable",
      "type": "function"
    },
    {
      "inputs": [
        {
          "internalType": "bytes4",
          "name": "interfaceId",
          "type": "bytes4"
        }
      ],
      "name": "supportsInterface",
      "outputs": [
        {
          "internalType": "bool",
          "name": "",
          "type": "bool"
        }
      ],
      "stateMutability": "view",
      "type": "function"
    },
    {
      "inputs": [],
      "name": "symbol",
      "outputs": [
        {
          "internalType": "string",
          "name": "",
          "type": "string"
        }
      ],
      "stateMutability": "view",
      "type": "function"
    },
    {
      "inputs": [],
      "name": "totalSupply",
      "outputs": [
        {
          "internalType": "uint256",
          "name": "",
          "type": "uint256"
        }
      ],
      "stateMutability": "view",
      "type": "function"
    },
    {
      "inputs": [
        {
          "internalType": "address",
          "name": "to",
          "type": "address"
        },
        {
          "internalType": "uint256",
          "name": "amount",
          "type": "uint256"
        }
      ],
      "name": "transfer",
      "outputs": [
        {
          "internalType": "bool",
          "name": "",
          "type": "bool"
        }
      ],
      "stateMutability": "nonpayable",
      "type": "function"
    },
    {
      "inputs": [
        {
          "internalType": "address",
          "name": "from",
          "type": "address"
        },
        {
          "internalType": "address",
          "name": "to",
          "type": "address"
        },
        {
          "internalType": "uint256",
          "name": "amount",
          "type": "uint256"
        }
      ],
      "name": "transferFrom",
      "outputs": [
        {
          "internalType": "bool",
          "name": "",
          "type": "bool"
        }
      ],
      "stateMutability": "nonpayable",
      "type": "function"
    },
    {
      "inputs": [
        {
          "internalType": "address",
          "name": "account",
          "type": "address"
        }
      ],
      "name": "unBlacklist",
      "outputs": [],
      "stateMutability": "nonpayable",
      "type": "function"
    },
    {
      "inputs": [],
      "name": "unpause",
      "outputs": [],
      "stateMutability": "nonpayable",
      "type": "function"
    }
  ],
  "bytecode": "0x608060405234801561001057600080fd5b50613407806100206000396000f3fe608060405234801561001057600080fd5b50600436106101cf5760003560e01c806370a0823111610104578063a457c2d7116100a2578063dd62ed3e11610071578063dd62ed3e1461051c578063e63ab1e91461054c578063f9f92be41461056a578063fe575a8714610586576101cf565b8063a457c2d714610482578063a9059cbb146104b2578063d5391393146104e2578063d547741f14610500576101cf565b806391d14854116100de57806391d14854146103fa57806395d89b411461042a5780639dc29fac14610448578063a217fddf14610464576101cf565b806370a08231146103b65780638129fc1c146103e65780638456cb59146103f0576101cf565b80632f2ff15d11610171578063395093511161014b57806339509351146103425780633f4ba83a1461037257806340c10f191461037c5780635c975abb14610398576101cf565b80632f2ff15d146102ec578063313ce5671461030857806336568abe14610326576101cf565b806318160ddd116101ad57806318160ddd146102525780631a8952661461027057806323b872dd1461028c578063248a9ca3146102bc576101cf565b806301ffc9a7146101d457806306fdde0314610204578063095ea7b314610222575b600080fd5b6101ee60048036038101906101e99190612434565b6105b6565b6040516101fb919061280f565b60405180910390f35b61020c610630565b6040516102199190612860565b60405180910390f35b61023c60048036038101906102379190612393565b6106c2565b604051610249919061280f565b60405180910390f35b61025a6106e5565b6040516102679190612aa2565b60405180910390f35b61028a600480360381019061028591906122df565b6106ef565b005b6102a660048036038101906102a19190612344565b610758565b6040516102b3919061280f565b60405180910390f35b6102d660048036038101906102d191906123cf565b610787565b6040516102e3919061282a565b60405180910390f35b610306600480360381019061030191906123f8565b6107a7565b005b6103106107c8565b60405161031d9190612abd565b60405180910390f35b610340600480360381019061033b91906123f8565b6107d1565b005b61035c60048036038101906103579190612393565b610854565b604051610369919061280f565b60405180910390f35b61037a61088b565b005b61039660048036038101906103919190612393565b6108c0565b005b6103a06108f9565b6040516103ad919061280f565b60405180910390f35b6103d060048036038101906103cb91906122df565b610910565b6040516103dd9190612aa2565b60405180910390f35b6103ee610959565b005b6103f8610bbb565b005b610414600480360381019061040f91906123f8565b610bf0565b604051610421919061280f565b60405180910390f35b610432610c5b565b60405161043f9190612860565b60405180910390f35b610462600480360381019061045d9190612393565b610ced565b005b61046c610d26565b604051610479919061282a565b60405180910390f35b61049c60048036038101906104979190612393565b610d2d565b6040516104a9919061280f565b60405180910390f35b6104cc60048036038101906104c79190612393565b610da4565b6040516104d9919061280f565b60405180910390f35b6104ea610dc7565b6040516104f7919061282a565b60405180910390f35b61051a600480360381019061051591906123f8565b610deb565b005b61053660048036038101906105319190612308565b610e0c565b6040516105439190612aa2565b60405180910390f35b610554610e93565b604051610561919061282a565b60405180910390f35b610584600480360381019061057f91906122df565b610eb7565b005b6105a0600480360381019061059b91906122df565b610f20565b6040516105ad919061280f565b60405180910390f35b60007f7965db0b000000000000000000000000000000000000000000000000000000007bffffffffffffffffffffffffffffffffffffffffffffffffffffffff1916827bffffffffffffffffffffffffffffffffffffffffffffffffffffffff19161480610629575061062882610f76565b5b9050919050565b60606036805461063f90612e1a565b80601f016020809104026020016040519081016040528092919081815260200182805461066b90612e1a565b80156106b85780601f1061068d576101008083540402835291602001916106b8565b820191906000526020600020905b81548152906001019060200180831161069b57829003601f168201915b5050505050905090565b6000806106cd610fe0565b90506106da818585610fe8565b600191505092915050565b6000603554905090565b6000801b6106fc816111b3565b600060fb60008473ffffffffffffffffffffffffffffffffffffffff1673ffffffffffffffffffffffffffffffffffffffff16815260200190815260200160002060006101000a81548160ff0219169083151502179055505050565b600080610763610fe0565b90506107708582856111c7565b61077b858585611253565b60019150509392505050565b600060976000838152602001908152602001600020600101549050919050565b6107b082610787565b6107b9816111b3565b6107c383836114ce565b505050565b60006012905090565b6107d9610fe0565b73ffffffffffffffffffffffffffffffffffffffff168173ffffffffffffffffffffffffffffffffffffffff1614610846576040517f08c379a000000000000000000000000000000000000000000000000000000000815260040161083d90612a62565b60405180910390fd5b61085082826115af565b5050565b60008061085f610fe0565b90506108808185856108718589610e0c565b61087b9190612aff565b610fe8565b600191505092915050565b7f65d7a28e3265b37a6474929f336521b332c1681b933f6cb9f3376673440d862a6108b5816111b3565b6108bd611691565b50565b7f9f2df0fed2c77648de5860a4cc508cd0818c85b8b8a1ab4ceeef8d981c8956a66108ea816111b3565b6108f483836116f4565b505050565b600060c960009054906101000a900460ff16905090565b6000603360008373ffffffffffffffffffffffffffffffffffffffff1673ffffffffffffffffffffffffffffffffffffffff168152602001908152602001600020549050919050565b60008060019054906101000a900460ff1615905080801561098a5750600160008054906101000a900460ff1660ff16105b806109b757506109993061184c565b1580156109b65750600160008054906101000a900460ff1660ff16145b5b6109f6576040517f08c379a00000000000000000000000000000000000000000000000000000000081526004016109ed90612982565b60405180910390fd5b60016000806101000a81548160ff021916908360ff1602179055508015610a33576001600060016101000a81548160ff0219169083151502179055505b610aa76040518060400160405280600c81526020017f486f6c69646179546f6b656e00000000000000000000000000000000000000008152506040518060400160405280600381526020017f484454000000000000000000000000000000000000000000000000000000000081525061186f565b610aaf6118cc565b610ab761191d565b610acb6000801b610ac6610fe0565b611976565b610afc7f65d7a28e3265b37a6474929f336521b332c1681b933f6cb9f3376673440d862a610af7610fe0565b611976565b610b2d7f9f2df0fed2c77648de5860a4cc508cd0818c85b8b8a1ab4ceeef8d981c8956a6610b28610fe0565b611976565b610b5f610b38610fe0565b610b406107c8565b600a610b4c9190612ba8565b620f4240610b5a9190612cc6565b6116f4565b8015610bb85760008060016101000a81548160ff0219169083151502179055507f7f26b83ff96e1f2b6a682f133852f6798a09c465da95921460cefb38474024986001604051610baf9190612845565b60405180910390a15b50565b7f65d7a28e3265b37a6474929f336521b332c1681b933f6cb9f3376673440d862a610be5816111b3565b610bed611984565b50565b60006097600084815260200190815260200160002060000160008373ffffffffffffffffffffffffffffffffffffffff1673ffffffffffffffffffffffffffffffffffffffff16815260200190815260200160002060009054906101000a900460ff16905092915050565b606060378054610c6a90612e1a565b80601f0160208091040260200160405190810160405280929190818152602001828054610c9690612e1a565b8015610ce35780601f10610cb857610100808354040283529160200191610ce3565b820191906000526020600020905b815481529060010190602001808311610cc657829003601f168201915b5050505050905090565b7f9f2df0fed2c77648de5860a4cc508cd0818c85b8b8a1ab4ceeef8d981c8956a6610d17816111b3565b610d2183836119e7565b505050565b6000801b81565b600080610d38610fe0565b90506000610d468286610e0c565b905083811015610d8b576040517f08c379a0000000000000000000000000000000000000000000000000000000008152600401610d8290612a42565b60405180910390fd5b610d988286868403610fe8565b60019250505092915050565b600080610daf610fe0565b9050610dbc818585611253565b600191505092915050565b7f9f2df0fed2c77648de5860a4cc508cd0818c85b8b8a1ab4ceeef8d981c8956a681565b610df482610787565b610dfd816111b3565b610e0783836115af565b505050565b6000603460008473ffffffffffffffffffffffffffffffffffffffff1673ffffffffffffffffffffffffffffffffffffffff16815260200190815260200160002060008373ffffffffffffffffffffffffffffffffffffffff1673ffffffffffffffffffffffffffffffffffffffff16815260200190815260200160002054905092915050565b7f65d7a28e3265b37a6474929f336521b332c1681b933f6cb9f3376673440d862a81565b6000801b610ec4816111b3565b600160fb60008473ffffffffffffffffffffffffffffffffffffffff1673ffffffffffffffffffffffffffffffffffffffff16815260200190815260200160002060006101000a81548160ff0219169083151502179055505050565b600060fb60008373ffffffffffffffffffffffffffffffffffffffff1673ffffffffffffffffffffffffffffffffffffffff16815260200190815260200160002060009054906101000a900460ff169050919050565b60007f01ffc9a7000000000000000000000000000000000000000000000000000000007bffffffffffffffffffffffffffffffffffffffffffffffffffffffff1916827bffffffffffffffffffffffffffffffffffffffffffffffffffffffff1916149050919050565b600033905090565b600073ffffffffffffffffffffffffffffffffffffffff168373ffffffffffffffffffffffffffffffffffffffff161415611058576040517f08c379a000000000000000000000000000000000000000000000000000000000815260040161104f90612a02565b60405180910390fd5b600073ffffffffffffffffffffffffffffffffffffffff168273ffffffffffffffffffffffffffffffffffffffff1614156110c8576040517f08c379a00000000000000000000000000000000000000000000000000000000081526004016110bf90612902565b60405180910390fd5b80603460008573ffffffffffffffffffffffffffffffffffffffff1673ffffffffffffffffffffffffffffffffffffffff16815260200190815260200160002060008473ffffffffffffffffffffffffffffffffffffffff1673ffffffffffffffffffffffffffffffffffffffff168152602001908152602001600020819055508173ffffffffffffffffffffffffffffffffffffffff168373ffffffffffffffffffffffffffffffffffffffff167f8c5be1e5ebec7d5bd14f71427d1e84f3dd0314c0f7b2291e5b200ac8c7c3b925836040516111a69190612aa2565b60405180910390a3505050565b6111c4816111bf610fe0565b611bb7565b50565b60006111d38484610e0c565b90507fffffffffffffffffffffffffffffffffffffffffffffffffffffffffffffffff811461124d578181101561123f576040517f08c379a000000000000000000000000000000000000000000000000000000000815260040161123690612922565b60405180910390fd5b61124c8484848403610fe8565b5b50505050565b600073ffffffffffffffffffffffffffffffffffffffff168373ffffffffffffffffffffffffffffffffffffffff1614156112c3576040517f08c379a00000000000000000000000000000000000000000000000000000000081526004016112ba906129e2565b60405180910390fd5b600073ffffffffffffffffffffffffffffffffffffffff168273ffffffffffffffffffffffffffffffffffffffff161415611333576040517f08c379a000000000000000000000000000000000000000000000000000000000815260040161132a906128a2565b60405180910390fd5b61133e838383611c3c565b6000603360008573ffffffffffffffffffffffffffffffffffffffff1673ffffffffffffffffffffffffffffffffffffffff168152602001908152602001600020549050818110156113c5576040517f08c379a00000000000000000000000000000000000000000000000000000000081526004016113bc90612942565b60405180910390fd5b818103603360008673ffffffffffffffffffffffffffffffffffffffff1673ffffffffffffffffffffffffffffffffffffffff1681526020019081526020016000208190555081603360008573ffffffffffffffffffffffffffffffffffffffff1673ffffffffffffffffffffffffffffffffffffffff168152602001908152602001600020600082825401925050819055508273ffffffffffffffffffffffffffffffffffffffff168473ffffffffffffffffffffffffffffffffffffffff167fddf252ad1be2c89b69c2b068fc378daa952ba7f163c4a11628f55a4df523b3ef846040516114b59190612aa2565b60405180910390a36114c8848484611d37565b50505050565b6114d88282610bf0565b6115ab5760016097600084815260200190815260200160002060000160008373ffffffffffffffffffffffffffffffffffffffff1673ffffffffffffffffffffffffffffffffffffffff16815260200190815260200160002060006101000a81548160ff021916908315150217905550611550610fe0565b73ffffffffffffffffffffffffffffffffffffffff168173ffffffffffffffffffffffffffffffffffffffff16837f2f8788117e7eff1d82e926ec794901d17c78024a50270940304540a733656f0d60405160405180910390a45b5050565b6115b98282610bf0565b1561168d5760006097600084815260200190815260200160002060000160008373ffffffffffffffffffffffffffffffffffffffff1673ffffffffffffffffffffffffffffffffffffffff16815260200190815260200160002060006101000a81548160ff021916908315150217905550611632610fe0565b73ffffffffffffffffffffffffffffffffffffffff168173ffffffffffffffffffffffffffffffffffffffff16837ff6391f5c32d9c69d2a47ea670b442974b53935d1edc7fd64eb21e047a839171b60405160405180910390a45b5050565b611699611d3c565b600060c960006101000a81548160ff0219169083151502179055507f5db9ee0a495bf2e6ff9c91a7834c1ba4fdd244a5e8aa4e537bd38aeae4b073aa6116dd610fe0565b6040516116ea91906127f4565b60405180910390a1565b600073ffffffffffffffffffffffffffffffffffffffff168273ffffffffffffffffffffffffffffffffffffffff161415611764576040517f08c379a000000000000000000000000000000000000000000000000000000000815260040161175b90612a82565b60405180910390fd5b61177060008383611c3c565b80603560008282546117829190612aff565b9250508190555080603360008473ffffffffffffffffffffffffffffffffffffffff1673ffffffffffffffffffffffffffffffffffffffff168152602001908152602001600020600082825401925050819055508173ffffffffffffffffffffffffffffffffffffffff16600073ffffffffffffffffffffffffffffffffffffffff167fddf252ad1be2c89b69c2b068fc378daa952ba7f163c4a11628f55a4df523b3ef836040516118349190612aa2565b60405180910390a361184860008383611d37565b5050565b6000808273ffffffffffffffffffffffffffffffffffffffff163b119050919050565b600060019054906101000a900460ff166118be576040517f08c379a00000000000000000000000000000000000000000000000000000000081526004016118b590612a22565b60405180910390fd5b6118c88282611d85565b5050565b600060019054906101000a900460ff1661191b576040517f08c379a000000000000000000000000000000000000000000000000000000000815260040161191290612a22565b60405180910390fd5b565b600060019054906101000a900460ff1661196c576040517f08c379a000000000000000000000000000000000000000000000000000000000815260040161196390612a22565b60405180910390fd5b611974611e06565b565b61198082826114ce565b5050565b61198c611e72565b600160c960006101000a81548160ff0219169083151502179055507f62e78cea01bee320cd4e420270b5ea74000d11b0c9f74754ebdbfc544b05a2586119d0610fe0565b6040516119dd91906127f4565b60405180910390a1565b600073ffffffffffffffffffffffffffffffffffffffff168273ffffffffffffffffffffffffffffffffffffffff161415611a57576040517f08c379a0000000000000000000000000000000000000000000000000000000008152600401611a4e906129c2565b60405180910390fd5b611a6382600083611c3c565b6000603360008473ffffffffffffffffffffffffffffffffffffffff1673ffffffffffffffffffffffffffffffffffffffff16815260200190815260200160002054905081811015611aea576040517f08c379a0000000000000000000000000000000000000000000000000000000008152600401611ae1906128e2565b60405180910390fd5b818103603360008573ffffffffffffffffffffffffffffffffffffffff1673ffffffffffffffffffffffffffffffffffffffff1681526020019081526020016000208190555081603560008282540392505081905550600073ffffffffffffffffffffffffffffffffffffffff168373ffffffffffffffffffffffffffffffffffffffff167fddf252ad1be2c89b69c2b068fc378daa952ba7f163c4a11628f55a4df523b3ef84604051611b9e9190612aa2565b60405180910390a3611bb283600084611d37565b505050565b611bc18282610bf0565b611c3857611bce81611ebc565b611bdc8360001c6020611ee9565b604051602001611bed9291906127ba565b6040516020818303038152906040526040517f08c379a0000000000000000000000000000000000000000000000000000000008152600401611c2f9190612860565b60405180910390fd5b5050565b611c44611e72565b60fb60008473ffffffffffffffffffffffffffffffffffffffff1673ffffffffffffffffffffffffffffffffffffffff16815260200190815260200160002060009054906101000a900460ff16158015611ce8575060fb60008373ffffffffffffffffffffffffffffffffffffffff1673ffffffffffffffffffffffffffffffffffffffff16815260200190815260200160002060009054906101000a900460ff16155b611d27576040517f08c379a0000000000000000000000000000000000000000000000000000000008152600401611d1e906129a2565b60405180910390fd5b611d328383836121e3565b505050565b505050565b611d446108f9565b611d83576040517f08c379a0000000000000000000000000000000000000000000000000000000008152600401611d7a906128c2565b60405180910390fd5b565b600060019054906101000a900460ff16611dd4576040517f08c379a0000000000000000000000000000000000000000000000000000000008152600401611dcb90612a22565b60405180910390fd5b8160369080519060200190611dea9291906121e8565b508060379080519060200190611e019291906121e8565b505050565b600060019054906101000a900460ff16611e55576040517f08c379a0000000000000000000000000000000000000000000000000000000008152600401611e4c90612a22565b60405180910390fd5b600060c960006101000a81548160ff021916908315150217905550565b611e7a6108f9565b15611eba576040517f08c379a0000000000000000000000000000000000000000000000000000000008152600401611eb190612962565b60405180910390fd5b565b6060611ee28273ffffffffffffffffffffffffffffffffffffffff16601460ff16611ee9565b9050919050565b606060006002836002611efc9190612cc6565b611f069190612aff565b67ffffffffffffffff811115611f45577f4e487b7100000000000000000000000000000000000000000000000000000000600052604160045260246000fd5b6040519080825280601f01601f191660200182016040528015611f775781602001600182028036833780820191505090505b5090507f300000000000000000000000000000000000000000000000000000000000000081600081518110611fd5577f4e487b7100000000000000000000000000000000000000000000000000000000600052603260045260246000fd5b60200101907effffffffffffffffffffffffffffffffffffffffffffffffffffffffffffff1916908160001a9053507f78000000000000000000000000000000000000000000000000000000000000008160018151811061205f577f4e487b7100000000000000000000000000000000000000000000000000000000600052603260045260246000fd5b60200101907effffffffffffffffffffffffffffffffffffffffffffffffffffffffffffff1916908160001a9053506000600184600261209f9190612cc6565b6120a99190612aff565b90505b6001811115612195577f3031323334353637383961626364656600000000000000000000000000000000600f861660108110612111577f4e487b7100000000000000000000000000000000000000000000000000000000600052603260045260246000fd5b1a60f81b82828151811061214e577f4e487b7100000000000000000000000000000000000000000000000000000000600052603260045260246000fd5b60200101907effffffffffffffffffffffffffffffffffffffffffffffffffffffffffffff1916908160001a905350600485901c94508061218e90612df0565b90506120ac565b50600084146121d9576040517f08c379a00000000000000000000000000000000000000000000000000000000081526004016121d090612882565b60405180910390fd5b8091505092915050565b505050565b8280546121f490612e1a565b90600052602060002090601f016020900481019282612216576000855561225d565b82601f1061222f57805160ff191683800117855561225d565b8280016001018555821561225d579182015b8281111561225c578251825591602001919060010190612241565b5b50905061226a919061226e565b5090565b5b8082111561228757600081600090555060010161226f565b5090565b60008135905061229a81613375565b92915050565b6000813590506122af8161338c565b92915050565b6000813590506122c4816133a3565b92915050565b6000813590506122d9816133ba565b92915050565b6000602082840312156122f157600080fd5b60006122ff8482850161228b565b91505092915050565b6000806040838503121561231b57600080fd5b60006123298582860161228b565b925050602061233a8582860161228b565b9150509250929050565b60008060006060848603121561235957600080fd5b60006123678682870161228b565b93505060206123788682870161228b565b9250506040612389868287016122ca565b9150509250925092565b600080604083850312156123a657600080fd5b60006123b48582860161228b565b92505060206123c5858286016122ca565b9150509250929050565b6000602082840312156123e157600080fd5b60006123ef848285016122a0565b91505092915050565b6000806040838503121561240b57600080fd5b6000612419858286016122a0565b925050602061242a8582860161228b565b9150509250929050565b60006020828403121561244657600080fd5b6000612454848285016122b5565b91505092915050565b61246681612d20565b82525050565b61247581612d32565b82525050565b61248481612d3e565b82525050565b61249381612dab565b82525050565b60006124a482612ad8565b6124ae8185612ae3565b93506124be818560208601612dbd565b6124c781612eaa565b840191505092915050565b60006124dd82612ad8565b6124e78185612af4565b93506124f7818560208601612dbd565b80840191505092915050565b6000612510602083612ae3565b915061251b82612ec8565b602082019050919050565b6000612533602383612ae3565b915061253e82612ef1565b604082019050919050565b6000612556601483612ae3565b915061256182612f40565b602082019050919050565b6000612579602283612ae3565b915061258482612f69565b604082019050919050565b600061259c602283612ae3565b91506125a782612fb8565b604082019050919050565b60006125bf601d83612ae3565b91506125ca82613007565b602082019050919050565b60006125e2602683612ae3565b91506125ed82613030565b604082019050919050565b6000612605601083612ae3565b91506126108261307f565b602082019050919050565b6000612628602e83612ae3565b9150612633826130a8565b604082019050919050565b600061264b601d83612ae3565b9150612656826130f7565b602082019050919050565b600061266e602183612ae3565b915061267982613120565b604082019050919050565b6000612691602583612ae3565b915061269c8261316f565b604082019050919050565b60006126b4602483612ae3565b91506126bf826131be565b604082019050919050565b60006126d7602b83612ae3565b91506126e28261320d565b604082019050919050565b60006126fa601783612af4565b91506127058261325c565b601782019050919050565b600061271d602583612ae3565b915061272882613285565b604082019050919050565b6000612740601183612af4565b915061274b826132d4565b601182019050919050565b6000612763602f83612ae3565b915061276e826132fd565b604082019050919050565b6000612786601f83612ae3565b91506127918261334c565b602082019050919050565b6127a581612d94565b82525050565b6127b481612d9e565b82525050565b60006127c5826126ed565b91506127d182856124d2565b91506127dc82612733565b91506127e882846124d2565b91508190509392505050565b6000602082019050612809600083018461245d565b92915050565b6000602082019050612824600083018461246c565b92915050565b600060208201905061283f600083018461247b565b92915050565b600060208201905061285a600083018461248a565b92915050565b6000602082019050818103600083015261287a8184612499565b905092915050565b6000602082019050818103600083015261289b81612503565b9050919050565b600060208201905081810360008301526128bb81612526565b9050919050565b600060208201905081810360008301526128db81612549565b9050919050565b600060208201905081810360008301526128fb8161256c565b9050919050565b6000602082019050818103600083015261291b8161258f565b9050919050565b6000602082019050818103600083015261293b816125b2565b9050919050565b6000602082019050818103600083015261295b816125d5565b9050919050565b6000602082019050818103600083015261297b816125f8565b9050919050565b6000602082019050818103600083015261299b8161261b565b9050919050565b600060208201905081810360008301526129bb8161263e565b9050919050565b600060208201905081810360008301526129db81612661565b9050919050565b600060208201905081810360008301526129fb81612684565b9050919050565b60006020820190508181036000830152612a1b816126a7565b9050919050565b60006020820190508181036000830152612a3b816126ca565b9050919050565b60006020820190508181036000830152612a5b81612710565b9050919050565b60006020820190508181036000830152612a7b81612756565b9050919050565b60006020820190508181036000830152612a9b81612779565b9050919050565b6000602082019050612ab7600083018461279c565b92915050565b6000602082019050612ad260008301846127ab565b92915050565b600081519050919050565b600082825260208201905092915050565b600081905092915050565b6000612b0a82612d94565b9150612b1583612d94565b9250827fffffffffffffffffffffffffffffffffffffffffffffffffffffffffffffffff03821115612b4a57612b49612e4c565b5b828201905092915050565b6000808291508390505b6001851115612b9f57808604811115612b7b57612b7a612e4c565b5b6001851615612b8a5780820291505b8081029050612b9885612ebb565b9450612b5f565b94509492505050565b6000612bb382612d94565b9150612bbe83612d9e565b9250612beb7fffffffffffffffffffffffffffffffffffffffffffffffffffffffffffffffff8484612bf3565b905092915050565b600082612c035760019050612cbf565b81612c115760009050612cbf565b8160018114612c275760028114612c3157612c60565b6001915050612cbf565b60ff841115612c4357612c42612e4c565b5b8360020a915084821115612c5a57612c59612e4c565b5b50612cbf565b5060208310610133831016604e8410600b8410161715612c955782820a905083811115612c9057612c8f612e4c565b5b612cbf565b612ca28484846001612b55565b92509050818404811115612cb957612cb8612e4c565b5b81810290505b9392505050565b6000612cd182612d94565b9150612cdc83612d94565b9250817fffffffffffffffffffffffffffffffffffffffffffffffffffffffffffffffff0483118215151615612d1557612d14612e4c565b5b828202905092915050565b6000612d2b82612d74565b9050919050565b60008115159050919050565b6000819050919050565b60007fffffffff0000000000000000000000000000000000000000000000000000000082169050919050565b600073ffffffffffffffffffffffffffffffffffffffff82169050919050565b6000819050919050565b600060ff82169050919050565b6000612db682612d9e565b9050919050565b60005b83811015612ddb578082015181840152602081019050612dc0565b83811115612dea576000848401525b50505050565b6000612dfb82612d94565b91506000821415612e0f57612e0e612e4c565b5b600182039050919050565b60006002820490506001821680612e3257607f821691505b60208210811415612e4657612e45612e7b565b5b50919050565b7f4e487b7100000000000000000000000000000000000000000000000000000000600052601160045260246000fd5b7f4e487b7100000000000000000000000000000000000000000000000000000000600052602260045260246000fd5b6000601f19601f8301169050919050565b60008160011c9050919050565b7f537472696e67733a20686578206c656e67746820696e73756666696369656e74600082015250565b7f45524332303a207472616e7366657220746f20746865207a65726f206164647260008201527f6573730000000000000000000000000000000000000000000000000000000000602082015250565b7f5061757361626c653a206e6f7420706175736564000000000000000000000000600082015250565b7f45524332303a206275726e20616d6f756e7420657863656564732062616c616e60008201527f6365000000000000000000000000000000000000000000000000000000000000602082015250565b7f45524332303a20617070726f766520746f20746865207a65726f20616464726560008201527f7373000000000000000000000000000000000000000000000000000000000000602082015250565b7f45524332303a20696e73756666696369656e7420616c6c6f77616e6365000000600082015250565b7f45524332303a207472616e7366657220616d6f756e742065786365656473206260008201527f616c616e63650000000000000000000000000000000000000000000000000000602082015250565b7f5061757361626c653a2070617573656400000000000000000000000000000000600082015250565b7f496e697469616c697a61626c653a20636f6e747261637420697320616c72656160008201527f647920696e697469616c697a6564000000000000000000000000000000000000602082015250565b7f45524332303a206163636f756e7420697320626c61636b6c6973746564000000600082015250565b7f45524332303a206275726e2066726f6d20746865207a65726f2061646472657360008201527f7300000000000000000000000000000000000000000000000000000000000000602082015250565b7f45524332303a207472616e736665722066726f6d20746865207a65726f20616460008201527f6472657373000000000000000000000000000000000000000000000000000000602082015250565b7f45524332303a20617070726f76652066726f6d20746865207a65726f2061646460008201527f7265737300000000000000000000000000000000000000000000000000000000602082015250565b7f496e697469616c697a61626c653a20636f6e7472616374206973206e6f74206960008201527f6e697469616c697a696e67000000000000000000000000000000000000000000602082015250565b7f416363657373436f6e74726f6c3a206163636f756e7420000000000000000000600082015250565b7f45524332303a2064656372656173656420616c6c6f77616e63652062656c6f7760008201527f207a65726f000000000000000000000000000000000000000000000000000000602082015250565b7f206973206d697373696e6720726f6c6520000000000000000000000000000000600082015250565b7f416363657373436f6e74726f6c3a2063616e206f6e6c792072656e6f756e636560008201527f20726f6c657320666f722073656c660000000000000000000000000000000000602082015250565b7f45524332303a206d696e7420746f20746865207a65726f206164647265737300600082015250565b61337e81612d20565b811461338957600080fd5b50565b61339581612d3e565b81146133a057600080fd5b50565b6133ac81612d48565b81146133b757600080fd5b50565b6133c381612d94565b81146133ce57600080fd5b5056fea2646970667358221220832d8fb3b8799eade6986240a39050f2024c575e89c02ca4c88335a1d811a8ab64736f6c63430008040033",
  "linkReferences": {},
  "deployedLinkReferences": {}
}